{
  "_format": "hh-sol-artifact-1",
  "contractName": "Election",
  "sourceName": "contracts/Election.sol",
  "abi": [
    {
      "inputs": [
        {
          "internalType": "address",
          "name": "_org",
          "type": "address"
        },
        {
          "internalType": "uint256",
          "name": "_duration",
          "type": "uint256"
        }
      ],
      "stateMutability": "nonpayable",
      "type": "constructor"
    },
    {
      "anonymous": false,
      "inputs": [
        {
          "indexed": true,
          "internalType": "uint256",
          "name": "_candidateId",
          "type": "uint256"
        }
      ],
      "name": "votedEvent",
      "type": "event"
    },
    {
      "stateMutability": "nonpayable",
      "type": "fallback"
    },
    {
      "inputs": [
        {
          "internalType": "string",
          "name": "_name",
          "type": "string"
        },
        {
          "internalType": "string",
          "name": "_details",
          "type": "string"
        },
        {
          "internalType": "string",
          "name": "_party",
          "type": "string"
        },
        {
          "internalType": "address",
          "name": "accountId",
          "type": "address"
        }
      ],
      "name": "addCandidate",
      "outputs": [],
      "stateMutability": "nonpayable",
      "type": "function"
    },
    {
      "inputs": [
        {
          "internalType": "address",
          "name": "",
          "type": "address"
        }
      ],
      "name": "allCandidates",
      "outputs": [
        {
          "internalType": "bool",
          "name": "",
          "type": "bool"
        }
      ],
      "stateMutability": "view",
      "type": "function"
    },
    {
      "inputs": [],
      "name": "anyTimeLeft",
      "outputs": [
        {
          "internalType": "bool",
          "name": "",
          "type": "bool"
        }
      ],
      "stateMutability": "view",
      "type": "function"
    },
    {
      "inputs": [],
      "name": "candidate",
      "outputs": [
        {
          "internalType": "string",
          "name": "",
          "type": "string"
        }
      ],
      "stateMutability": "view",
      "type": "function"
    },
    {
      "inputs": [
        {
          "internalType": "uint256",
          "name": "",
          "type": "uint256"
        }
      ],
      "name": "candidates",
      "outputs": [
        {
          "internalType": "uint256",
          "name": "id",
          "type": "uint256"
        },
        {
          "internalType": "string",
          "name": "name",
          "type": "string"
        },
        {
          "internalType": "uint256",
          "name": "voteCount",
          "type": "uint256"
        },
        {
          "internalType": "string",
          "name": "details",
          "type": "string"
        },
        {
          "internalType": "string",
          "name": "party",
          "type": "string"
        }
      ],
      "stateMutability": "view",
      "type": "function"
    },
    {
      "inputs": [],
      "name": "candidatesCount",
      "outputs": [
        {
          "internalType": "uint256",
          "name": "",
          "type": "uint256"
        }
      ],
      "stateMutability": "view",
      "type": "function"
    },
    {
      "inputs": [],
      "name": "duration",
      "outputs": [
        {
          "internalType": "uint256",
          "name": "",
          "type": "uint256"
        }
      ],
      "stateMutability": "view",
      "type": "function"
    },
    {
      "inputs": [],
      "name": "endTime",
      "outputs": [
        {
          "internalType": "uint256",
          "name": "",
          "type": "uint256"
        }
      ],
      "stateMutability": "view",
      "type": "function"
    },
    {
      "inputs": [],
      "name": "getWinner",
      "outputs": [
        {
          "internalType": "string",
          "name": "",
          "type": "string"
        }
      ],
      "stateMutability": "view",
      "type": "function"
    },
    {
      "inputs": [
        {
          "internalType": "address",
          "name": "userAddress",
          "type": "address"
        }
      ],
      "name": "hasVoted",
      "outputs": [
        {
          "internalType": "bool",
          "name": "",
          "type": "bool"
        }
      ],
      "stateMutability": "view",
      "type": "function"
    },
    {
      "inputs": [
        {
          "internalType": "address",
          "name": "userAddress",
          "type": "address"
        }
      ],
      "name": "isCandidate",
      "outputs": [
        {
          "internalType": "bool",
          "name": "",
          "type": "bool"
        }
      ],
      "stateMutability": "view",
      "type": "function"
    },
    {
      "inputs": [],
      "name": "organizer",
      "outputs": [
        {
          "internalType": "address",
          "name": "",
          "type": "address"
        }
      ],
      "stateMutability": "view",
      "type": "function"
    },
    {
      "inputs": [
        {
          "internalType": "uint256",
          "name": "_candidateId",
          "type": "uint256"
        }
      ],
      "name": "vote",
      "outputs": [],
      "stateMutability": "nonpayable",
      "type": "function"
    },
    {
      "inputs": [
        {
          "internalType": "address",
          "name": "",
          "type": "address"
        }
      ],
      "name": "voters",
      "outputs": [
        {
          "internalType": "bool",
          "name": "",
          "type": "bool"
        }
      ],
      "stateMutability": "view",
      "type": "function"
    }
  ],
  "bytecode": "0x60806040523480156200001157600080fd5b5060405162001de638038062001de683398181016040528101906200003791906200022f565b81600460006101000a81548173ffffffffffffffffffffffffffffffffffffffff021916908373ffffffffffffffffffffffffffffffffffffffff16021790555080600781905550620000b060405180606001604052806026815260200162001dc0602691398383620000b860201b62000da21760201c565b505062000380565b6200015c838383604051602401620000d3939291906200033c565b6040516020818303038152906040527f0d26b925000000000000000000000000000000000000000000000000000000007bffffffffffffffffffffffffffffffffffffffffffffffffffffffff19166020820180517bffffffffffffffffffffffffffffffffffffffffffffffffffffffff83818316178352505050506200016160201b60201c565b505050565b60008151905060006a636f6e736f6c652e6c6f679050602083016000808483855afa5050505050565b600080fd5b600073ffffffffffffffffffffffffffffffffffffffff82169050919050565b6000620001bc826200018f565b9050919050565b620001ce81620001af565b8114620001da57600080fd5b50565b600081519050620001ee81620001c3565b92915050565b6000819050919050565b6200020981620001f4565b81146200021557600080fd5b50565b6000815190506200022981620001fe565b92915050565b600080604083850312156200024957620002486200018a565b5b60006200025985828601620001dd565b92505060206200026c8582860162000218565b9150509250929050565b600081519050919050565b600082825260208201905092915050565b60005b83811015620002b257808201518184015260208101905062000295565b83811115620002c2576000848401525b50505050565b6000601f19601f8301169050919050565b6000620002e68262000276565b620002f2818562000281565b93506200030481856020860162000292565b6200030f81620002c8565b840191505092915050565b6200032581620001af565b82525050565b6200033681620001f4565b82525050565b60006060820190508181036000830152620003588186620002d9565b90506200036960208301856200031a565b6200037860408301846200032b565b949350505050565b611a3080620003906000396000f3fe608060405234801561001057600080fd5b50600436106100ee5760003560e01c80636c8381f81161008c578063a3ec138d11610066578063a3ec138d14610265578063a8b7e80414610295578063d51b9e93146102c5578063e405bf90146102f5576100ef565b80636c8381f81461020b5780638e7ea5b214610229578063a155d36d14610247576100ef565b80632d35a8a2116100c85780632d35a8a21461017d5780633197cbb61461019b5780633477ee2e146101b957806361203265146101ed576100ef565b80630121b93f1461011357806309eef43e1461012f5780630fb5a6b41461015f576100ef565b5b6101116040518060600160405280602581526020016119d66025913933610311565b005b61012d60048036038101906101289190611092565b6103ad565b005b6101496004803603810190610144919061111d565b6105bb565b6040516101569190611165565b60405180910390f35b610167610650565b604051610174919061118f565b60405180910390f35b610185610656565b604051610192919061118f565b60405180910390f35b6101a361065c565b6040516101b0919061118f565b60405180910390f35b6101d360048036038101906101ce9190611092565b610662565b6040516101e4959493929190611243565b60405180910390f35b6101f5610830565b60405161020291906112ba565b60405180910390f35b610213610856565b60405161022091906112d5565b60405180910390f35b6102316108e4565b60405161023e91906112d5565b60405180910390f35b61024f610ab9565b60405161025c9190611165565b60405180910390f35b61027f600480360381019061027a919061111d565b610ad9565b60405161028c9190611165565b60405180910390f35b6102af60048036038101906102aa919061111d565b610af9565b6040516102bc9190611165565b60405180910390f35b6102df60048036038101906102da919061111d565b610b19565b6040516102ec9190611165565b60405180910390f35b61030f600480360381019061030a919061142c565b610bae565b005b6103a982826040516024016103279291906114e7565b6040516020818303038152906040527f319af333000000000000000000000000000000000000000000000000000000007bffffffffffffffffffffffffffffffffffffffffffffffffffffffff19166020820180517bffffffffffffffffffffffffffffffffffffffffffffffffffffffff8381831617835250505050610e41565b5050565b600160003373ffffffffffffffffffffffffffffffffffffffff1673ffffffffffffffffffffffffffffffffffffffff16815260200190815260200160002060009054906101000a900460ff161561043a576040517f08c379a000000000000000000000000000000000000000000000000000000000815260040161043190611563565b60405180910390fd5b6104796040518060400160405280601c81526020017f476f696e6720746f20766f74652c2063616e6420494420697320256f0000000081525082610e6a565b60008111801561048b57506003548111155b6104ca576040517f08c379a00000000000000000000000000000000000000000000000000000000081526004016104c1906115cf565b60405180910390fd5b60018060003373ffffffffffffffffffffffffffffffffffffffff1673ffffffffffffffffffffffffffffffffffffffff16815260200190815260200160002060006101000a81548160ff02191690831515021790555060008082815260200190815260200160002060020160008154809291906105479061161e565b919050555061058b6040518060400160405280600d81526020017f2025732068617320766f7465640000000000000000000000000000000000000081525033610311565b807ffff3c900d938d21d0990d786e819f29b8d05c1ef587b462b939609625b684b1660405160405180910390a250565b60006105fc6040518060400160405280601281526020017f204861766520796f7520766f746564202573000000000000000000000000000081525083610311565b600160008373ffffffffffffffffffffffffffffffffffffffff1673ffffffffffffffffffffffffffffffffffffffff16815260200190815260200160002060009054906101000a900460ff169050919050565b60075481565b60035481565b60065481565b600060205280600052604060002060009150905080600001549080600101805461068b90611696565b80601f01602080910402602001604051908101604052809291908181526020018280546106b790611696565b80156107045780601f106106d957610100808354040283529160200191610704565b820191906000526020600020905b8154815290600101906020018083116106e757829003601f168201915b50505050509080600201549080600301805461071f90611696565b80601f016020809104026020016040519081016040528092919081815260200182805461074b90611696565b80156107985780601f1061076d57610100808354040283529160200191610798565b820191906000526020600020905b81548152906001019060200180831161077b57829003601f168201915b5050505050908060040180546107ad90611696565b80601f01602080910402602001604051908101604052809291908181526020018280546107d990611696565b80156108265780601f106107fb57610100808354040283529160200191610826565b820191906000526020600020905b81548152906001019060200180831161080957829003601f168201915b5050505050905085565b600460009054906101000a900473ffffffffffffffffffffffffffffffffffffffff1681565b6005805461086390611696565b80601f016020809104026020016040519081016040528092919081815260200182805461088f90611696565b80156108dc5780601f106108b1576101008083540402835291602001916108dc565b820191906000526020600020905b8154815290600101906020018083116108bf57829003601f168201915b505050505081565b606060006006541161092b576040517f08c379a000000000000000000000000000000000000000000000000000000000815260040161092290611714565b60405180910390fd5b600654421015610970576040517f08c379a000000000000000000000000000000000000000000000000000000000815260040161096790611780565b60405180910390fd5b6000600354116109b5576040517f08c379a00000000000000000000000000000000000000000000000000000000081526004016109ac906117ec565b60405180910390fd5b60008080600190505b6003548111610a135782600080838152602001908152602001600020600201541115610a00576000808281526020019081526020016000206002015492508091505b8080610a0b9061161e565b9150506109be565b506000808281526020019081526020016000206001018054610a3490611696565b80601f0160208091040260200160405190810160405280929190818152602001828054610a6090611696565b8015610aad5780601f10610a8257610100808354040283529160200191610aad565b820191906000526020600020905b815481529060010190602001808311610a9057829003601f168201915b50505050509250505090565b6000806006541415610ace5760019050610ad6565b600654421090505b90565b60016020528060005260406000206000915054906101000a900460ff1681565b60026020528060005260406000206000915054906101000a900460ff1681565b6000610b5a6040518060400160405280601581526020017f2041726520796f752063616e646964617465202573000000000000000000000081525083610311565b600260008373ffffffffffffffffffffffffffffffffffffffff1673ffffffffffffffffffffffffffffffffffffffff16815260200190815260200160002060009054906101000a900460ff169050919050565b600260008273ffffffffffffffffffffffffffffffffffffffff1673ffffffffffffffffffffffffffffffffffffffff16815260200190815260200160002060009054906101000a900460ff1615610c3b576040517f08c379a0000000000000000000000000000000000000000000000000000000008152600401610c329061187e565b60405180910390fd5b60006003541415610c5b5760075442610c54919061189e565b6006819055505b60036000815480929190610c6e9061161e565b91905055506001600260008373ffffffffffffffffffffffffffffffffffffffff1673ffffffffffffffffffffffffffffffffffffffff16815260200190815260200160002060006101000a81548160ff0219169083151502179055506040518060a00160405280600354815260200185815260200160008152602001848152602001838152506000806003548152602001908152602001600020600082015181600001556020820151816001019080519060200190610d2f929190610fa5565b50604082015181600201556060820151816003019080519060200190610d56929190610fa5565b506080820151816004019080519060200190610d73929190610fa5565b50905050610d9c6040518060600160405280602e81526020016119a8602e913985600354610f06565b50505050565b610e3c838383604051602401610dba939291906118f4565b6040516020818303038152906040527f0d26b925000000000000000000000000000000000000000000000000000000007bffffffffffffffffffffffffffffffffffffffffffffffffffffffff19166020820180517bffffffffffffffffffffffffffffffffffffffffffffffffffffffff8381831617835250505050610e41565b505050565b60008151905060006a636f6e736f6c652e6c6f679050602083016000808483855afa5050505050565b610f028282604051602401610e80929190611932565b6040516020818303038152906040527fb60e72cc000000000000000000000000000000000000000000000000000000007bffffffffffffffffffffffffffffffffffffffffffffffffffffffff19166020820180517bffffffffffffffffffffffffffffffffffffffffffffffffffffffff8381831617835250505050610e41565b5050565b610fa0838383604051602401610f1e93929190611962565b6040516020818303038152906040527f5821efa1000000000000000000000000000000000000000000000000000000007bffffffffffffffffffffffffffffffffffffffffffffffffffffffff19166020820180517bffffffffffffffffffffffffffffffffffffffffffffffffffffffff8381831617835250505050610e41565b505050565b828054610fb190611696565b90600052602060002090601f016020900481019282610fd3576000855561101a565b82601f10610fec57805160ff191683800117855561101a565b8280016001018555821561101a579182015b82811115611019578251825591602001919060010190610ffe565b5b509050611027919061102b565b5090565b5b8082111561104457600081600090555060010161102c565b5090565b6000604051905090565b600080fd5b600080fd5b6000819050919050565b61106f8161105c565b811461107a57600080fd5b50565b60008135905061108c81611066565b92915050565b6000602082840312156110a8576110a7611052565b5b60006110b68482850161107d565b91505092915050565b600073ffffffffffffffffffffffffffffffffffffffff82169050919050565b60006110ea826110bf565b9050919050565b6110fa816110df565b811461110557600080fd5b50565b600081359050611117816110f1565b92915050565b60006020828403121561113357611132611052565b5b600061114184828501611108565b91505092915050565b60008115159050919050565b61115f8161114a565b82525050565b600060208201905061117a6000830184611156565b92915050565b6111898161105c565b82525050565b60006020820190506111a46000830184611180565b92915050565b600081519050919050565b600082825260208201905092915050565b60005b838110156111e45780820151818401526020810190506111c9565b838111156111f3576000848401525b50505050565b6000601f19601f8301169050919050565b6000611215826111aa565b61121f81856111b5565b935061122f8185602086016111c6565b611238816111f9565b840191505092915050565b600060a0820190506112586000830188611180565b818103602083015261126a818761120a565b90506112796040830186611180565b818103606083015261128b818561120a565b9050818103608083015261129f818461120a565b90509695505050505050565b6112b4816110df565b82525050565b60006020820190506112cf60008301846112ab565b92915050565b600060208201905081810360008301526112ef818461120a565b905092915050565b600080fd5b600080fd5b7f4e487b7100000000000000000000000000000000000000000000000000000000600052604160045260246000fd5b611339826111f9565b810181811067ffffffffffffffff8211171561135857611357611301565b5b80604052505050565b600061136b611048565b90506113778282611330565b919050565b600067ffffffffffffffff82111561139757611396611301565b5b6113a0826111f9565b9050602081019050919050565b82818337600083830152505050565b60006113cf6113ca8461137c565b611361565b9050828152602081018484840111156113eb576113ea6112fc565b5b6113f68482856113ad565b509392505050565b600082601f830112611413576114126112f7565b5b81356114238482602086016113bc565b91505092915050565b6000806000806080858703121561144657611445611052565b5b600085013567ffffffffffffffff81111561146457611463611057565b5b611470878288016113fe565b945050602085013567ffffffffffffffff81111561149157611490611057565b5b61149d878288016113fe565b935050604085013567ffffffffffffffff8111156114be576114bd611057565b5b6114ca878288016113fe565b92505060606114db87828801611108565b91505092959194509250565b60006040820190508181036000830152611501818561120a565b905061151060208301846112ab565b9392505050565b7f596f75206861766520616c726561647920766f74656400000000000000000000600082015250565b600061154d6016836111b5565b915061155882611517565b602082019050919050565b6000602082019050818103600083015261157c81611540565b9050919050565b7f496e76616c696420494420746f20766f74650000000000000000000000000000600082015250565b60006115b96012836111b5565b91506115c482611583565b602082019050919050565b600060208201905081810360008301526115e8816115ac565b9050919050565b7f4e487b7100000000000000000000000000000000000000000000000000000000600052601160045260246000fd5b60006116298261105c565b91507fffffffffffffffffffffffffffffffffffffffffffffffffffffffffffffffff82141561165c5761165b6115ef565b5b600182019050919050565b7f4e487b7100000000000000000000000000000000000000000000000000000000600052602260045260246000fd5b600060028204905060018216806116ae57607f821691505b602082108114156116c2576116c1611667565b5b50919050565b7f4e6f2063616e6469646174652068617320726567697374657265642079657400600082015250565b60006116fe601f836111b5565b9150611709826116c8565b602082019050919050565b6000602082019050818103600083015261172d816116f1565b9050919050565b7f456c656374696f6e206973207374696c6c206f6e676f696e6700000000000000600082015250565b600061176a6019836111b5565b915061177582611734565b602082019050919050565b600060208201905081810360008301526117998161175d565b9050919050565b7f4e6f2063616e6469646174657320696e2074686520656c656374696f6e000000600082015250565b60006117d6601d836111b5565b91506117e1826117a0565b602082019050919050565b60006020820190508181036000830152611805816117c9565b9050919050565b7f546869732063616e6469646174652068617320616c7265616479206265656e2060008201527f6e6f6d696e617465640000000000000000000000000000000000000000000000602082015250565b60006118686029836111b5565b91506118738261180c565b604082019050919050565b600060208201905081810360008301526118978161185b565b9050919050565b60006118a98261105c565b91506118b48361105c565b9250827fffffffffffffffffffffffffffffffffffffffffffffffffffffffffffffffff038211156118e9576118e86115ef565b5b828201905092915050565b6000606082019050818103600083015261190e818661120a565b905061191d60208301856112ab565b61192a6040830184611180565b949350505050565b6000604082019050818103600083015261194c818561120a565b905061195b6020830184611180565b9392505050565b6000606082019050818103600083015261197c818661120a565b90508181036020830152611990818561120a565b905061199f6040830184611180565b94935050505056fe5468652063616e64696461746520257320616464656420686176696e6720746f74616c2063616e6420697320256f596f75722063616c6c65642066756e6374696f6e206e6f7420666f756e64203a2820257329a26469706673582212203be8aed64ab3ab701cdbe6aa2bd1336a9a8a71b3be94e6d156e0b3dce0e4d17164736f6c63430008090033546865206f7267616e697a657220697320257320616e6420656e642074696d6520697320256f",
  "linkReferences": {},
  "deployedLinkReferences": {}
}