{
  "_format": "hh-sol-artifact-1",
  "contractName": "Election",
  "sourceName": "contracts/Election.sol",
  "abi": [
    {
      "inputs": [
        {
          "internalType": "address",
          "name": "_org",
          "type": "address"
        }
      ],
      "stateMutability": "nonpayable",
      "type": "constructor"
    },
    {
      "anonymous": false,
      "inputs": [
        {
          "indexed": true,
          "internalType": "uint256",
          "name": "_candidateId",
          "type": "uint256"
        }
      ],
      "name": "votedEvent",
      "type": "event"
    },
    {
      "stateMutability": "nonpayable",
      "type": "fallback"
    },
    {
      "inputs": [
        {
          "internalType": "string",
          "name": "_name",
          "type": "string"
        },
        {
          "internalType": "string",
          "name": "_details",
          "type": "string"
        },
        {
          "internalType": "string",
          "name": "_election_id",
          "type": "string"
        }
      ],
      "name": "addCandidate",
      "outputs": [],
      "stateMutability": "nonpayable",
      "type": "function"
    },
    {
      "inputs": [],
      "name": "candidate",
      "outputs": [
        {
          "internalType": "string",
          "name": "",
          "type": "string"
        }
      ],
      "stateMutability": "view",
      "type": "function"
    },
    {
      "inputs": [
        {
          "internalType": "uint256",
          "name": "",
          "type": "uint256"
        }
      ],
      "name": "candidates",
      "outputs": [
        {
          "internalType": "uint256",
          "name": "id",
          "type": "uint256"
        },
        {
          "internalType": "string",
          "name": "name",
          "type": "string"
        },
        {
          "internalType": "uint256",
          "name": "voteCount",
          "type": "uint256"
        },
        {
          "internalType": "string",
          "name": "details",
          "type": "string"
        },
        {
          "internalType": "string",
          "name": "election_id",
          "type": "string"
        }
      ],
      "stateMutability": "view",
      "type": "function"
    },
    {
      "inputs": [],
      "name": "candidatesCount",
      "outputs": [
        {
          "internalType": "uint256",
          "name": "",
          "type": "uint256"
        }
      ],
      "stateMutability": "view",
      "type": "function"
    },
    {
      "inputs": [],
      "name": "checkme",
      "outputs": [
        {
          "internalType": "uint256",
          "name": "",
          "type": "uint256"
        }
      ],
      "stateMutability": "pure",
      "type": "function"
    },
    {
      "inputs": [],
      "name": "organizer",
      "outputs": [
        {
          "internalType": "address",
          "name": "",
          "type": "address"
        }
      ],
      "stateMutability": "view",
      "type": "function"
    },
    {
      "inputs": [
        {
          "internalType": "uint256",
          "name": "_candidateId",
          "type": "uint256"
        }
      ],
      "name": "vote",
      "outputs": [],
      "stateMutability": "nonpayable",
      "type": "function"
    },
    {
      "inputs": [
        {
          "internalType": "address",
          "name": "",
          "type": "address"
        }
      ],
      "name": "voters",
      "outputs": [
        {
          "internalType": "bool",
          "name": "",
          "type": "bool"
        }
      ],
      "stateMutability": "view",
      "type": "function"
    }
  ],
  "bytecode": "0x60806040523480156200001157600080fd5b50604051620014af380380620014af833981810160405281019062000037919062000204565b80600360006101000a81548173ffffffffffffffffffffffffffffffffffffffff021916908373ffffffffffffffffffffffffffffffffffffffff160217905550620000c46040518060400160405280601381526020017f546865206f7267616e697a65722069732025730000000000000000000000000081525082620000cb60201b620001c51760201c565b506200031f565b6200016d8282604051602401620000e4929190620002eb565b6040516020818303038152906040527f319af333000000000000000000000000000000000000000000000000000000007bffffffffffffffffffffffffffffffffffffffffffffffffffffffff19166020820180517bffffffffffffffffffffffffffffffffffffffffffffffffffffffff83818316178352505050506200017160201b60201c565b5050565b60008151905060006a636f6e736f6c652e6c6f679050602083016000808483855afa5050505050565b600080fd5b600073ffffffffffffffffffffffffffffffffffffffff82169050919050565b6000620001cc826200019f565b9050919050565b620001de81620001bf565b8114620001ea57600080fd5b50565b600081519050620001fe81620001d3565b92915050565b6000602082840312156200021d576200021c6200019a565b5b60006200022d84828501620001ed565b91505092915050565b600081519050919050565b600082825260208201905092915050565b60005b838110156200027257808201518184015260208101905062000255565b8381111562000282576000848401525b50505050565b6000601f19601f8301169050919050565b6000620002a68262000236565b620002b2818562000241565b9350620002c481856020860162000252565b620002cf8162000288565b840191505092915050565b620002e581620001bf565b82525050565b6000604082019050818103600083015262000307818562000299565b9050620003186020830184620002da565b9392505050565b611180806200032f6000396000f3fe608060405234801561001057600080fd5b506004361061008c5760003560e01c80636c8381f81161005b5780636c8381f81461013d5780636cc003b91461015b578063a3ec138d14610179578063ad71f8dc146101a95761008d565b80630121b93f146100b15780632d35a8a2146100cd5780633477ee2e146100eb578063612032651461011f5761008d565b5b6100af60405180606001604052806025815260200161112660259139336101c5565b005b6100cb60048036038101906100c69190610a60565b610261565b005b6100d561046f565b6040516100e29190610a9c565b60405180910390f35b61010560048036038101906101009190610a60565b610475565b604051610116959493929190610b50565b60405180910390f35b610127610643565b6040516101349190610bf9565b60405180910390f35b610145610669565b6040516101529190610c14565b60405180910390f35b6101636106f7565b6040516101709190610a9c565b60405180910390f35b610193600480360381019061018e9190610c62565b610701565b6040516101a09190610caa565b60405180910390f35b6101c360048036038101906101be9190610dfa565b610721565b005b61025d82826040516024016101db929190610ea1565b6040516020818303038152906040527f319af333000000000000000000000000000000000000000000000000000000007bffffffffffffffffffffffffffffffffffffffffffffffffffffffff19166020820180517bffffffffffffffffffffffffffffffffffffffffffffffffffffffff838183161783525050505061080f565b5050565b600160003373ffffffffffffffffffffffffffffffffffffffff1673ffffffffffffffffffffffffffffffffffffffff16815260200190815260200160002060009054906101000a900460ff16156102ee576040517f08c379a00000000000000000000000000000000000000000000000000000000081526004016102e590610f1d565b60405180910390fd5b61032d6040518060400160405280601c81526020017f476f696e6720746f20766f74652c2063616e6420494420697320256f0000000081525082610838565b60008111801561033f57506002548111155b61037e576040517f08c379a000000000000000000000000000000000000000000000000000000000815260040161037590610f89565b60405180910390fd5b60018060003373ffffffffffffffffffffffffffffffffffffffff1673ffffffffffffffffffffffffffffffffffffffff16815260200190815260200160002060006101000a81548160ff02191690831515021790555060008082815260200190815260200160002060020160008154809291906103fb90610fd8565b919050555061043f6040518060400160405280600d81526020017f2025732068617320766f74656400000000000000000000000000000000000000815250336101c5565b807ffff3c900d938d21d0990d786e819f29b8d05c1ef587b462b939609625b684b1660405160405180910390a250565b60025481565b600060205280600052604060002060009150905080600001549080600101805461049e90611050565b80601f01602080910402602001604051908101604052809291908181526020018280546104ca90611050565b80156105175780601f106104ec57610100808354040283529160200191610517565b820191906000526020600020905b8154815290600101906020018083116104fa57829003601f168201915b50505050509080600201549080600301805461053290611050565b80601f016020809104026020016040519081016040528092919081815260200182805461055e90611050565b80156105ab5780601f10610580576101008083540402835291602001916105ab565b820191906000526020600020905b81548152906001019060200180831161058e57829003601f168201915b5050505050908060040180546105c090611050565b80601f01602080910402602001604051908101604052809291908181526020018280546105ec90611050565b80156106395780601f1061060e57610100808354040283529160200191610639565b820191906000526020600020905b81548152906001019060200180831161061c57829003601f168201915b5050505050905085565b600360009054906101000a900473ffffffffffffffffffffffffffffffffffffffff1681565b6004805461067690611050565b80601f01602080910402602001604051908101604052809291908181526020018280546106a290611050565b80156106ef5780601f106106c4576101008083540402835291602001916106ef565b820191906000526020600020905b8154815290600101906020018083116106d257829003601f168201915b505050505081565b60006103e7905090565b60016020528060005260406000206000915054906101000a900460ff1681565b6002600081548092919061073490610fd8565b91905055506040518060a0016040528060025481526020018481526020016000815260200183815260200182815250600080600254815260200190815260200160002060008201518160000155602082015181600101908051906020019061079d929190610973565b506040820151816002015560608201518160030190805190602001906107c4929190610973565b5060808201518160040190805190602001906107e1929190610973565b5090505061080a6040518060600160405280602e81526020016110f8602e9139846002546108d4565b505050565b60008151905060006a636f6e736f6c652e6c6f679050602083016000808483855afa5050505050565b6108d0828260405160240161084e929190611082565b6040516020818303038152906040527fb60e72cc000000000000000000000000000000000000000000000000000000007bffffffffffffffffffffffffffffffffffffffffffffffffffffffff19166020820180517bffffffffffffffffffffffffffffffffffffffffffffffffffffffff838183161783525050505061080f565b5050565b61096e8383836040516024016108ec939291906110b2565b6040516020818303038152906040527f5821efa1000000000000000000000000000000000000000000000000000000007bffffffffffffffffffffffffffffffffffffffffffffffffffffffff19166020820180517bffffffffffffffffffffffffffffffffffffffffffffffffffffffff838183161783525050505061080f565b505050565b82805461097f90611050565b90600052602060002090601f0160209004810192826109a157600085556109e8565b82601f106109ba57805160ff19168380011785556109e8565b828001600101855582156109e8579182015b828111156109e75782518255916020019190600101906109cc565b5b5090506109f591906109f9565b5090565b5b80821115610a125760008160009055506001016109fa565b5090565b6000604051905090565b600080fd5b600080fd5b6000819050919050565b610a3d81610a2a565b8114610a4857600080fd5b50565b600081359050610a5a81610a34565b92915050565b600060208284031215610a7657610a75610a20565b5b6000610a8484828501610a4b565b91505092915050565b610a9681610a2a565b82525050565b6000602082019050610ab16000830184610a8d565b92915050565b600081519050919050565b600082825260208201905092915050565b60005b83811015610af1578082015181840152602081019050610ad6565b83811115610b00576000848401525b50505050565b6000601f19601f8301169050919050565b6000610b2282610ab7565b610b2c8185610ac2565b9350610b3c818560208601610ad3565b610b4581610b06565b840191505092915050565b600060a082019050610b656000830188610a8d565b8181036020830152610b778187610b17565b9050610b866040830186610a8d565b8181036060830152610b988185610b17565b90508181036080830152610bac8184610b17565b90509695505050505050565b600073ffffffffffffffffffffffffffffffffffffffff82169050919050565b6000610be382610bb8565b9050919050565b610bf381610bd8565b82525050565b6000602082019050610c0e6000830184610bea565b92915050565b60006020820190508181036000830152610c2e8184610b17565b905092915050565b610c3f81610bd8565b8114610c4a57600080fd5b50565b600081359050610c5c81610c36565b92915050565b600060208284031215610c7857610c77610a20565b5b6000610c8684828501610c4d565b91505092915050565b60008115159050919050565b610ca481610c8f565b82525050565b6000602082019050610cbf6000830184610c9b565b92915050565b600080fd5b600080fd5b7f4e487b7100000000000000000000000000000000000000000000000000000000600052604160045260246000fd5b610d0782610b06565b810181811067ffffffffffffffff82111715610d2657610d25610ccf565b5b80604052505050565b6000610d39610a16565b9050610d458282610cfe565b919050565b600067ffffffffffffffff821115610d6557610d64610ccf565b5b610d6e82610b06565b9050602081019050919050565b82818337600083830152505050565b6000610d9d610d9884610d4a565b610d2f565b905082815260208101848484011115610db957610db8610cca565b5b610dc4848285610d7b565b509392505050565b600082601f830112610de157610de0610cc5565b5b8135610df1848260208601610d8a565b91505092915050565b600080600060608486031215610e1357610e12610a20565b5b600084013567ffffffffffffffff811115610e3157610e30610a25565b5b610e3d86828701610dcc565b935050602084013567ffffffffffffffff811115610e5e57610e5d610a25565b5b610e6a86828701610dcc565b925050604084013567ffffffffffffffff811115610e8b57610e8a610a25565b5b610e9786828701610dcc565b9150509250925092565b60006040820190508181036000830152610ebb8185610b17565b9050610eca6020830184610bea565b9392505050565b7f596f75206861766520616c726561647920766f74656400000000000000000000600082015250565b6000610f07601683610ac2565b9150610f1282610ed1565b602082019050919050565b60006020820190508181036000830152610f3681610efa565b9050919050565b7f496e76616c696420494420746f20766f74650000000000000000000000000000600082015250565b6000610f73601283610ac2565b9150610f7e82610f3d565b602082019050919050565b60006020820190508181036000830152610fa281610f66565b9050919050565b7f4e487b7100000000000000000000000000000000000000000000000000000000600052601160045260246000fd5b6000610fe382610a2a565b91507fffffffffffffffffffffffffffffffffffffffffffffffffffffffffffffffff82141561101657611015610fa9565b5b600182019050919050565b7f4e487b7100000000000000000000000000000000000000000000000000000000600052602260045260246000fd5b6000600282049050600182168061106857607f821691505b6020821081141561107c5761107b611021565b5b50919050565b6000604082019050818103600083015261109c8185610b17565b90506110ab6020830184610a8d565b9392505050565b600060608201905081810360008301526110cc8186610b17565b905081810360208301526110e08185610b17565b90506110ef6040830184610a8d565b94935050505056fe5468652063616e64696461746520257320616464656420686176696e6720746f74616c2063616e6420697320256f596f75722063616c6c65642066756e6374696f6e206e6f7420666f756e64203a2820257329a26469706673582212206eb09a2e2edd692142982f5822de3f81c2f1cbdeea038d5f0e16fc9bc98ea4f264736f6c63430008090033",
  "linkReferences": {},
  "deployedLinkReferences": {}
}